:100000000C94E9010C9430020C9430020C943002F0
:100010000C9430020C9430020C9430020C94300298
:100020000C9430020C9430020C94FA200C94CE21E3
:100030000C94591B0C9430020C9430020C94300236
:100040000C9430020C9430020C9430020C94300268
:100050000C9430020C94B01B0C9430020C943002BF
:100060000C9430020C9430020C9430020C94300248
:100070000C9430020C9430020C9430020C94300238
:100080000C9430020C9430020C9430020C94300228
:100090000C9430020C9430020C9430020C94300218
:1000A0000C9430020C9430020C9430022C002C0082
:1000B0002C002C002C002C0001000100010001008C
:1000C0000100010001000100010001000100010028
:1000D0000100010001000100010001000100010018
:1000E0000100010001000100010001000100010008
:1000F00001000100010001000100010001000100F8
:1001000001000100010001000100010001000100E7
:1001100001000100010001000100010001000100D7
:1001200001000100010001000100010001000100C7
:1001300001000100010001000100010001000100B7
:1001400001000100010001000100010001000100A7
:100150000100010001000100010001000100010097
:100160000100010001000100010001000000000089
:10017000000000002A2B2800000000000000000002
:100180000000000000000029000000002C1E3420A8
:10019000212224342627252E362D3738271E1F20CE
:1001A0002122232425263333362E37381F04050613
:1001B0000708090A0B0C0D0E0F1011121314151657
:1001C0001718191A1B1C1D2F3130232D3504050655
:1001D0000708090A0B0C0D0E0F1011121314151637
:1001E0001718191A1B1C1D2F3130354C0000000048
:1001F00000000000000000000000000000000000FF
:1002000000000000000000000000000000000000EE
:100210007E0F00D4FFFFFFC70000007812036B00C1
:100220006500790062006F006100720064000000E8
:10023000160371006D006B006200750069006C00B0
:1002400064006500720000000403090409025B00F9
:10025000030100A0FA0904000001030101000921C3
:10026000110100012240000705810308000A09046A
:1002700001000203000000092111010001222200F7
:10028000070582032000010705030320000109047C
:100290000200010300000009211101000122B60043
:1002A0000705840320000A1201000200000008076D
:1002B0000943210100010200010660FF0961A1015B
:1002C0000962150026FF0095207508810209631553
:1002D0000026FF00952075089102C005010902A1C2
:1002E0000185020901A10005091901290815002548
:1002F0000195087501810205010930093115812533
:100300007F95027508810609381581257F9501754D
:10031000088106050C0A38021581257F95017508AC
:100320008106C0C005010980A101850319012AB712
:1003300000150126B700950175108100C0050C0954
:1003400001A101850419012AA002150126A0029528
:100350000175108100C005010906A1018506050788
:1003600019E029E7150025019508750181020507A7
:10037000190029EF1500250195F075018102050886
:1003800019012905950575019102950175039101E2
:10039000C005010906A101050719E029E715002597
:1003A00001950875018102950175088101050719FC
:1003B0000029FF150026FF00950675088100050835
:1003C00019012905950575019102950175039101A2
:1003D000C00011241FBECFEFDAE0DEBFCDBF04B6F0
:1003E00003FE27C08091590290915A02A0915B02AE
:1003F000B0915C028730904BA740B04BD1F4109283
:10040000590210925A0210925B0210925C0214BEC2
:1004100084B7877F84BF0FB6F894A8958091600059
:10042000886180936000109260000FBEE0E0F8E306
:10043000099511E0A0E0B1E0E2E8F8E402C005901F
:100440000D92A039B107D9F722E0A0E9B1E001C0CF
:100450001D92A935B207E1F70E945C120C940424A6
:100460000C94000090E080E008950895089581E0E4
:100470000895089581E008950C94370208950C942E
:100480003E021F93CF93DF9300D000D00F92CDB7E1
:10049000DEB749835A836B833091920189819A81B7
:1004A00031111DC06623B9F02223A9F00E94CF08A4
:1004B000182F682F89819A810E947A0869817A8130
:1004C000812F0F900F900F900F900F90DF91CF9191
:1004D0001F910C941F180E94A708182FEFCF0E949D
:1004E000CF0869817A81EDCFFC01262F40815181AF
:1004F0006281738184810C94410281E00895CF93DD
:10050000DF93EC0160E00E947402BE01DF91CF91A5
:100510000C943F02E1E0F0E0DF0102C0AA0FBB1F34
:100520006A95E2F7BD01DF0102C0AA0FBB1F4A9521
:10053000E2F76A2B01C0EE0F2A95EAF7962F98236F
:10054000961302C08E2B0895E0958E230895242FD4
:10055000462F682F809196010E948A020C943708DA
:100560000E941B110E9408040C9435110C94371141
:10057000089508950C94B9020E94BA0280E00C9488
:10058000090408950E94CF070E94C1022FEF84E35F
:100590009CE0215080409040E1F700C000000C94A6
:1005A000D41B0F931F93CF93DF938C0161E00E94C4
:1005B0007402EC01B8010E944B158823D9F1B801EF
:1005C000CE010E943C028823A9F1B801CE010E940D
:1005D0008019882379F1B801CE010E942F16882353
:1005E00049F1B801CE010E94EA18882319F1F801F7
:1005F0008281882361F0CA35FDE5DF0721F170F4BF
:10060000C115ECE5DE07A1F0CE3DDC45C9F0C8011F
:10061000DF91CF911F910F910C943A02CB358DE56C
:10062000D807A1F0CC35DD4591F70E94670DEFCFDB
:100630000E94C20280E0DF91CF911F910F91089537
:100640000E94200EF7CF0E94700DE1CF0E94730D23
:10065000DECF0C94B8020E94DC190E9409040C94AD
:100660002903DF92EF92FF920F931F93CF93DF93B3
:10067000E82FF0E0E459FE4FD490282F26952695D8
:10068000269530E0F901E45FFD4F0491877010E09A
:10069000082E02C0159507950A94E2F701701127FC
:1006A000F901E450FE4FE490F12C082E02C0F594BD
:1006B000E7940A94E2F791E0E922FF24F901E4517A
:1006C000FE4FC491D0E002C0D595C7958A95E2F758
:1006D000C170DD270115110519F081EE0E94540447
:1006E000E114F10419F086EE0E9454048D2D0E944D
:1006F0005305EF2819F086EE0E94E604012B19F04D
:1007000081EE0E94E604CD2B51F08CE2DF91CF9177
:100710001F910F91FF90EF90DF900C945305DF91A4
:10072000CF911F910F91FF90EF90DF900895EF927E
:10073000FF920F931F93CF93DF93EC01162F0AE0E4
:100740008881882309F454C0813009F04EC0898122
:10075000813099F47E0122E0E20EF11C8A810E9430
:100760005305E7012196812F815050F3EFE9FFE017
:100770003197F1F700C00000F7CF823041F47E01DD
:1007800082E0E80EF11C8A810E945404EACF833093
:1007900041F47E01E2E0EE0EF11C8A810E94E60443
:1007A000E0CF843011F02196DDCF2A81229690E0AF
:1007B00080E0AE014F5F5F4F2053330B2A3031058D
:1007C00048F0019778F2EFE9FFE03197F1F700C0C8
:1007D0000000F7CF089FB001099F700D1124C901D7
:1007E000860F971F2981EA01E4CF0E943103BACF17
:1007F000DF91CF911F910F91FF90EF90089560E0EE
:100800000C9497030C94390281E008950C9404042D
:100810000895CF93C82F0E9402048C2FCF910C947F
:100820000604CF93DF93CDB7DEB72B970FB6F894BE
:10083000DEBF0FBECDBF4F83588769877A878B870E
:1008400061110E94B50C1E821D8285E0FE01379663
:10085000DE01119601900D928A95E1F78C819D81C0
:10086000892B89F449815A816B817C818D819E819C
:100870000E94D60B2B960FB6F894DEBF0FBECDBFED
:10088000DF91CF91089589819A8189238F3F51F318
:10089000CE0101960E947D028111E4CFEBCFFC01D5
:1008A000808191810C94FC08CF93C82F882309F490
:1008B0008BC08238C1F40E94DC1981FD85C089E3B8
:1008C0000E94700C0E94E50C2FEF81EE94E0215005
:1008D00080409040E1F700C0000089E30E94770C5F
:1008E000CF910C94E50C8338A1F40E94DC1980FDB3
:1008F0006BC083E50E94700C0E94E50C2FEF81EE27
:1009000094E0215080409040E1F700C0000083E572
:10091000E5CF8438A1F40E94DC1982FD55C087E43C
:100920000E94700C0E94E50C2FEF81EE94E02150A4
:1009300080409040E1F700C0000087E4CFCF8CEF0B
:100940008C0F813A90F46C2F8091020190910301F9
:100950000E94501A882329F08C2F0E94770C0E9445
:10096000E50C8C2F0E94700CBBCF80E28C0F88307E
:1009700048F4C77081E001C0880FCA95EAF70E9469
:10098000980CAECFEBE5EC0FE33040F4F0E0E95B20
:10099000FE4F808190E0CF910C94101AE8E5EC0FA7
:1009A000E73150F4F0E0EE0FFF1FE75EFE4F80816D
:1009B0009181CF910C94261AC03F30F08C2F0E9469
:1009C000EC12CF910C94BF13CF910895882309F4B2
:1009D00052C0823871F40E94DC1981FF4CC089E357
:1009E0000E94700C0E94E50C89E30E94770C0C9425
:1009F000E50C833859F40E94DC1980FF3CC083E584
:100A00000E94700C0E94E50C83E5EFCF843859F406
:100A10000E94DC1982FF2FC087E40E94700C0E94A4
:100A2000E50C87E4E2CF9CEF980F913AF0F290E268
:100A3000980F983050F4877091E001C0990F8A9513
:100A4000EAF7892F0E949E0CD2CF9BE5980F933036
:100A500020F490E080E00C94101A98E5980F9731FC
:100A600020F490E080E00C94261A803F20F00E9451
:100A700046130C94BF1308951F93CF93DF93182F41
:100A8000EB010E945404209731F4812FDF91CF9124
:100A90001F910C94E6048FE99FE00197F1F700C0E5
:100AA00000002197F0CF70E060E0893311F460E539
:100AB00070E00C943C05882321F00E94980C0C9463
:100AC000E50C0895882321F00E949E0C0C94E50CFF
:100AD0000895BF92CF92DF92EF92FF920F931F93F0
:100AE000CF93DF936C01D62FC72FFC011281F580C5
:100AF000F2949FE0F9220E948E0CE82E8823B9F030
:100B0000E12E1123A1F08C2F807F803421F080E230
:100B10008D0F8830B0F08091430282FD12C082E0D8
:100B20000E94360D0E948E0C91E0E82EE926BC2E24
:100B3000B2948FE0B822EB2DF0E0EA5FFB4D0C940D
:100B40009423E12CF4CF0C2F0F70C07F11F002958D
:100B5000007F112399F0002359F080E28D0F883037
:100B600010F0D11107C0802F0E94980C0E94E50C54
:100B70008D2F41C0802F0E94A80CF8CF8D2F0E948E
:100B8000E604002309F43FC080E28D0F883010F0A6
:100B9000D11104C0802F0E949E0C03C0802F0E94A0
:100BA000AE0C0E94E50C2FC00C2F0F70C07FC0321E
:100BB00011F00295007FDD2381F0D13009F469C086
:100BC000112309F473C0FF2009F469C0F60185817F
:100BD00080FFCECF8F70858362C08091430282FFF9
:100BE00038C0112359F0002329F0802F0E94980C5F
:100BF0000E94E50C80E00E94540405C080E00E9441
:100C0000E6040111C7CFEB2DE850FF0B349720F419
:100C10000E94DC190E940904EE2009F45DC10E94C3
:100C20008A0C80FD59C1F60112820E94840C0E9438
:100C30004808C6010E948D070E94840CDF91CF9165
:100C40001F910F91FF90EF90DF90CF90BF900C9489
:100C50005308112389F0F11006C00E94C80C802BA4
:100C60000E945B05D0CFF1E0FF12F7CF0E94C80CC5
:100C7000802B0E94CE0CC7CFF11006C00E94DB0C67
:100C8000802F0E946205BFCF21E0F21609F4BBCF8E
:100C9000F5CF112331F035E03F1508F4B4CF802FA4
:100CA000DFCF84E08F1508F4AECFEACFFF2041F309
:100CB000D93349F4FFEF27EE33E0F15020403040C4
:100CC000E1F700C000008D2F0E94E6049CCF8C2F1E
:100CD00086958695837069F0813009F094CF8D2FC9
:100CE0009C2F9370111102C090E080E00E94261AA0
:100CF0008ACF8D2F9C2F9370111102C090E080E05D
:100D00000E94101A80CF8D2F112329F00E94EC121F
:100D10000E94BF1378CF0E944613FACF8C2F8370A6
:100D200079F5111170CF4D2F429546954770440FBC
:100D3000440F8D2F8F70042E01C0880F0A94EAF79C
:100D40002D2F2071D4FF07C02FE030E001C0220F0B
:100D50004A95EAF72095C695C695C370822BC23096
:100D600049F058F4C13019F00E9429084CCF0E9474
:100D7000240849CF0E942E0846CF0E94220843CF64
:100D80008695112311F08C2F8170882309F43BCFB5
:100D90004D2F429546954770440F440F8D2F8F700D
:100DA000042E01C0880F0A94EAF72D2F2071D4FF7A
:100DB00007C02FE030E001C0220F4A95EAF72095E6
:100DC000C695C695C370822BC23049F058F4C13025
:100DD00019F00E946F0817CF0E946A0814CF0E9472
:100DE000740811CF0E9437080ECFCF70112329F05D
:100DF0008C2F0E9448088D2F33CF8D2F0E946205C3
:100E00008C2F0E945308FFCED23F51F160F4D03FA7
:100E1000B9F0D13F81F0112309F449C0F110A8CEF7
:100E20008C2F8F7121C0D33F11F1D43FA1F7809156
:100E3000430282FF26C08C2F8F71112311F314C03F
:100E4000112349F084E08F1508F4DDCE8C2F8F71CB
:100E50000E945F08D8CE95E09F1508F4D4CEF6CF57
:100E60008C2F8F711111CDCF0E944808CCCE112349
:100E700029F08C2F8F710E944008C5CE0E943D083A
:100E8000C2CE112349F0CF718C2F0E94480863E035
:100E90008C2F0E941B0DB7CE81E00E94360DE1E041
:100EA000EF1508F0B0CE82E00E94360DACCEF11006
:100EB000FFCE8C2F8F71A5CF4C2F4F706D2FC60199
:100EC0000E9432020E942A099ECE4C2F4F706D2F35
:100ED000C6010E94040F97CEDF91CF911F910F9111
:100EE000FF90EF90DF90CF90BF9008950F931F93E6
:100EF000CF93DF93EC01688179818A810E94060992
:100F00008C010E9479080E942108B801CE01DF916E
:100F1000CF911F910F910C946905CF93DF93EC0152
:100F20008B819C81892B29F08881998189238F3F2E
:100F300059F4DF91CF910895CE010E947607CE013A
:100F4000DF91CF910C947F02CE010E94D1028111DA
:100F5000F3CF0E948E0C882361F38A81882349F3A2
:100F60008091430282FDE5CF82E0DF91CF910C9426
:100F7000360D90E080E00E94101A90E080E00E9420
:100F8000261A0E94B50C0E94C50C0E94E50C0E9416
:100F9000E6140C94BF130E947E0C0C94B9070E94B7
:100FA000A50C0C94CB07E92FE295EF70E250EE30E0
:100FB00070F4F0E0EA5EFB4D0C949423803F19F04E
:100FC00020F4883E20F481E00895843FE1F380E03E
:100FD0000895883EC0F3813FD1F7F5CF93FB882772
:100FE00080F90895FC01808191810E94FC080C9495
:100FF000D307CF93DF9300D000D00F92CDB7DEB7E9
:101000000F900F900F900F900F90DF91CF91089558
:10101000CF93DF9300D000D000D0CDB7DEB72696B7
:101020000FB6F894DEBF0FBECDBFDF91CF9108950C
:1010300008950C9418080E941908809397010C9445
:10104000B90708950C941B0890919701892B0C9473
:101050001B089091970189230C941B08909197018C
:1010600089270C941B080C9418080C9433080E94D0
:101070003508809396010C94B90780E00C943708EA
:1010800091E001C0990F8A95EAF7892F0C943708EF
:1010900021E030E001C0220F8A95EAF780919601A5
:1010A000822B0C94370821E030E001C0220F8A9592
:1010B000EAF720958091960182230C94370821E06D
:1010C00030E001C0220F8A95EAF7809196018227CD
:1010D0000C94370890919601892B0C9437089091C5
:1010E000960189230C9437089091960189270C94D6
:1010F00037080895E92FEE0F9E0F890F982F9770EC
:1011000041E001C0440F9A95EAF786958695869549
:1011100093E0899FF0011124ED56FE4F30E020E06E
:1011200070E05191DF011197CB01022E02C096951C
:1011300087950A94E2F78170819585278423852716
:101140008C932F5F3F4F2330310559F70895E92FD6
:10115000EE0F9E0F890F982F97708695869586952E
:1011600023E0829FF0011124ED56FE4F50E040E055
:1011700080E0219130E0092E02C0369527950A942F
:10118000E2F721703327042E01C0220F0A94EAF7F8
:10119000822B4F5F5F4F4330510559F70895CF922F
:1011A000DF92FF920F931F93CF93DF936C01009117
:1011B000960180919701082BC7E0D0E010E0FC2E4B
:1011C000C8010C2E02C0959587950A94E2F780FD20
:1011D0000CC02197A0F7F12C8F2DDF91CF911F919B
:1011E0000F91FF90DF90CF900895B6018C2F0E9451
:1011F0002010019771F3F0CFCF93DF93EC010E94A1
:10120000CF08BE01DF91CF910C9420101F93CF9394
:10121000DF93EB0190919201992331F0CB01DF91A3
:10122000CF911F910C94FC08882379F0CB010E9488
:10123000CF08182F682FCE010E947A08BE01812F97
:10124000DF91CF911F910C942010CB010E94A70831
:10125000182FF4CFEF92FF920F931F93CF93DF934A
:101260008C01892B81F0F12CEE24E394E801219686
:10127000F8018491843770F4843008F05FC08130C5
:10128000B1F08230A1F1DF91CF911F910F91FF90CA
:10129000EF900895853709F44CC008F43DC09CE7F1
:1012A000980F903780F78F770E94E60449C00E5F51
:1012B0001F4FFE01849190E2980F983060F4877080
:1012C000FE2D01C0FF0F8A95EAF78F2F0E94B80C00
:1012D0000E94E50C02C00E9454048F2D815030F210
:1012E000EFE9FFE03197F1F700C00000F7CF0E5FA4
:1012F0001F4FFE01849190E2980F983050F4877050
:10130000FE2D01C0FF0F8A95EAF78F2F0E94BE0CB9
:10131000DFCF0E94E604E1CF0E5F1F4FFE01C491B4
:10132000C150D8F28FE99FE00197F1F700C00000AB
:10133000F7CF0E5F1F4FFE01F490CFCF0E945404F1
:101340008E01CBCF1F93CF93DF93C091980116E00E
:10135000809199018C1304C0DF91CF911F91089562
:10136000D0E01C9FF0011D9FF00D1124E656FE4FAA
:101370004081518162817381848195810E94080836
:101380002196C770E5CF4091CA015091CB01609181
:10139000CC017091CD018091CE019091CF010C9440
:1013A0000808FF920F931F93CF93DF938091CF0193
:1013B000807FD1F48091CC018823B1F08091980195
:1013C000109199016091CA017091CB01A091CD015A
:1013D000B091CE01062F0723C0910001D0910101E9
:1013E00096E0F92E181306C0DF91CF911F910F914F
:1013F000FF90089590E0109711F00F3F19F40196B7
:101400008770F0CFF89E9001F99E300D1124F901FC
:10141000E656FE4F41814713F2CF40814613EFCF8E
:1014200042814111ECCF438154814A1B5B0B4C1725
:101430005D0728F78091CF018F7080618093CF0185
:10144000F901E156FE4F80818F70806180838AECC4
:1014500091E00E948D07DF91CF911F910F91FF9036
:101460000C94A209AF92BF92CF92DF92EF92FF92BB
:101470000F931F93CF93DF93CDB7DEB761970FB66E
:10148000F894DEBF0FBECDBF8C0185E0F801DE0110
:101490001D9601900D928A95E1F7F801E2808AECA1
:1014A000C82E81E0D82E6091CD017091CE016115DA
:1014B000710509F45FC19091CA012091CB01892F78
:1014C00082238F3F09F456C140815181A380B480AB
:1014D000F090CC01F501E61BF70BBF01E091000194
:1014E000F0910101FF2009F4F6C08091CF01382F5F
:1014F000307F6E177F0708F0AFC0311179C0FE2C26
:10150000251323C0941321C0E1101FC08F70806188
:101510008093CF010E94C309C6010E948D0780916C
:10152000CF01F80185838F2D61960FB6F894DEBF49
:101530000FBECDBFDF91CF911F910F91FF90EF9024
:10154000DF90CF90BF90AF900895AB2829F0842F03
:1015500085238F3F09F027C180E0F82FF170DF2E3F
:1015600080FF3CC0809198012091990136E0821360
:1015700015C04D875E878D859E850E94FC08292FAA
:1015800022952F702230F0F0243018F59F70F1F082
:10159000F8019581907FD1F4D12C1EC090E0389F46
:1015A000F001399FF00D1124E656FE4F618165135D
:1015B00006C06081641303C062816E110FC0019682
:1015C0008770D5CF9F7011F0882331F3805E88300B
:1015D00018F3C8010E948D07FD2CA5CFEE2009F459
:1015E000A2CF8091CF0181608093CF01F12C9BCF5E
:1015F000251306C0941304C0F801EE2009F487C037
:10160000C8010E94F207882319F1EE2009F18091A8
:10161000CF01803270F02091CA013091CB01388720
:101620002F831986BB86AA868C87CE0107960E94D7
:101630008D0786E0F801AAECB1E001900D928A9541
:10164000E1F70E94D1090E94C309FF24F3946BCFF4
:10165000C8010E948D07F9CF311113C07A2DB98AC4
:10166000A88A6E2D89890E94F9078AEC91E00E9470
:101670008D0786E0F60111928A95E9F70E94C30969
:10168000B5CF25130FC094130DC0E1100BC0F801A6
:101690008583C8010E948D0786E0F60111928A9524
:1016A000E9F741CFC8010E94F207882389F2EE20B2
:1016B00079F28091CF01803208F4BBCF2091CA012A
:1016C0003091CB013A8329831B82BD82AC828E8309
:1016D000CE010196ACCF6E177F0708F03EC0FE2CFE
:1016E000EE2009F4B5CF25132AC0941328C08091A9
:1016F000CF0180FD1BC0982F907FC1F0F80185833A
:10170000903F31F0982F907F905F8F70892B858369
:10171000C8010E948D0786E0F801AAECB1E00190B3
:101720000D928A95E1F70E94C309FDCE86E0F8018B
:10173000AAECB1E001900D928A95E1F7F4CEC801D0
:101740000E94F207811175CF8091CF018160809353
:10175000CF01C8010E948D07E6CE7A2DB98AA88AEA
:101760006E2D89890E94F90786E0F60111928A950B
:10177000E9F7D9CFEE2009F46BCFC8010E94F20738
:10178000F82E882309F464CF86E0F801AAECB1E0D2
:1017900001900D928A95E1F78AEC91E00E944F0446
:1017A0000E94D109C0CF81E08E25D7CE1F93CF9361
:1017B000DF93CDB7DEB72C970FB6F894DEBF0FBE20
:1017C000CDBF4F83588769877A878B879C87CE01E7
:1017D00007960E94320A882369F08A859B85892BA7
:1017E00039F04F815885842F85238F3F09F071C0D0
:1017F00016E05FC086E0FE013796DE01119601908B
:101800000D928A95E1F78A859B85892B89F38885D6
:101810009F8189238F3F61F32091990130E0C901B5
:10182000019687709927409198014817190671F41D
:101830000E94CF07109299011092980186E0EAEC7D
:10184000F1E0DF011D928A95E9F7D2CF96E0929FF1
:10185000D001939FB00D1124A656BE4FFE013196C4
:1018600001900D929A95E1F7809399010E94A20947
:10187000BFCF819FC001112486569E4F0E94320A1D
:101880008823E9F0E09198011E9FF0011124E656AB
:10189000FE4F4081518162817381848195810E94D4
:1018A00008088091980190E00196877099278093AD
:1018B000980180919801909199018913DACF2C9623
:1018C0000FB6F894DEBF0FBECDBFDF91CF911F9151
:1018D000089569857A858B859C850E94080888CF44
:1018E000682F80910201909103010C94D01A682F07
:1018F00080910201909103010C94DB1A8091020106
:10190000909103010C94E61A8091D00185958595FC
:10191000859508958091D001877008959091D001A8
:10192000977081E009F480E008958091F4010895B2
:101930009091F401892B8093F40108958095909102
:10194000F40198239093F40108951092F4010895FE
:101950009091F301892B8093F301089580959091E4
:10196000F30198239093F30108951092F3010895E1
:101970009091F201892B8093F201089580959091C6
:10198000F20198239093F20108951092F2010895C4
:101990008091D101089508950C94CB0C909143024D
:1019A00092FD08C09091D101981721F08093D10148
:1019B0000C94CC0C08958091D101882329F01092C9
:1019C000D10180E00C94CC0C0895E0910201F091DB
:1019D00003018091F4018083E0910201F091030101
:1019E00080819091F301892B8083E0910201F09135
:1019F000030180819091F201892B80839091D10124
:101A0000992381F0E0910201F09103018081892BFB
:101A1000808380910201909103010E943C1A811100
:101A20000E94DB0C80910201909103010C94E81953
:101A300008950C94180D9091430292FD10C098E007
:101A4000899F90011124622B6093D0010E94480865
:101A50008091D0018595859585950C94190D0C94F0
:101A600048081092D00180E00C94190D9091D0019B
:101A7000809589238093D001282F277091F4282FF7
:101A8000082E000C330B9217130659F09091430265
:101A900092FD07C08595859585950E9453080C9405
:101AA000310D08959091430292FB222720F92817C7
:101AB00069F080FB92F990934302809142029091E9
:101AC00043020E949D0D82E00C94360D0895809192
:101AD000430282FB882780F991E089270C94520DFC
:101AE00081E00C94520D80E00C94520D6FEF7FEF6B
:101AF00090E080E00C94EE2390E080E00E94CA2306
:101B0000893E9E4F11F40C94F41480E0089582E015
:101B100090E00C94C22383E090E00C94C223CF9316
:101B200084E090E00E94C223C82F82E290E00E94ED
:101B3000C223982F8C2FCF910895CF93C92F682F50
:101B400084E090E00E94D0236C2F82E290E0CF915D
:101B50000C94D023AB01BC018FE090E00C94E22305
:101B6000AB01BC0183E190E00C94E22360E070E003
:101B7000CB010C94B00D60E070E0CB010E94AA0D87
:101B80000C94B60D69EE7EEF90E080E00E94EE23AB
:101B900060E082E090E00E94D02360E083E090E08B
:101BA0000E94D0231092970160E084E090E00E94B0
:101BB000D02360E082E290E00E94D02360E085E0E4
:101BC00090E00E94D02360E086E090E00E94D02365
:101BD0006FEF87E090E00E94D02340E050E0BA0130
:101BE00088E090E00E94E22360E08DE090E00E94B7
:101BF000D02340E050E0BA0188E190E00E94E22367
:101C000060E087E190E00E94D02340E050E0BA011C
:101C10008CE190E00E94E22370E060E080E290E0DE
:101C20000E94EE2340E050E0BA0188E190E00E947B
:101C3000E22380E00E940D150E9433150C94BB0D29
:101C40000C94C20D682F8EE090E00C94D0230E947B
:101C5000951B6093FC017093FD018093FE019093AE
:101C6000FF016093F8017093F9018093FA0190935A
:101C7000FB01089585B7806885BF85B7806885BFFB
:101C80000895089508950C94410E08950C94450EFE
:101C90000E943A0E8EEF90E10E94D2190E94420EED
:101CA0000C94430E81E008950C94520E089508950B
:101CB0000E94560E0C94570E0E94801B0E944215E3
:101CC0000E94D2110C94460E9F92AF92BF92CF9277
:101CD000DF92EF92FF920F931F93CF93DF93CDB7D5
:101CE000DEB72A970FB6F894DEBF0FBECDBF0E94B5
:101CF000E11181110E94270E86EFA82E81E0B82EF7
:101D000010E000E0902E802F0E943911E82EF5019E
:101D1000C1905F01C81609F451C08091000281FD95
:101D20000E943F11D12CFF24F394CE248C2D8F21BF
:101D300009F43FC00E94540E882399F0DE829F82EE
:101D4000EF2081E009F480E088870E94891B816090
:101D5000782F9A8789874E815F8168858A850E945E
:101D60001104F801EA50FE4F8081F826F0820E94AB
:101D7000DA130E94DC199091F501891799F10E94FC
:101D8000DC198093F5012A960FB6F894DEBF0FBEDA
:101D9000CDBFDF91CF911F910F91FF90EF90DF901A
:101DA000CF90BF90AF909F900C94090401E010E099
:101DB000A9CFD394FF0CF3E0DF12B8CF01301105A7
:101DC000A9F78FEF89838A831B820E94891B816018
:101DD000782F9D838C8349815A816B818D810E94EC
:101DE0001104C5CF2A960FB6F894DEBF0FBECDBF43
:101DF000DF91CF911F910F91FF90EF90DF90CF90E7
:101E0000BF90AF909F9008950895FC01EE0FFF1FC3
:101E1000E45EFD4F859194910895CF93DF930E94E6
:101E20002410EC01811520E5920708F042C08115CD
:101E300030E4930708F0BDC0883E910528F5803E48
:101E4000910508F09DC0883A910588F4853A91057E
:101E500008F08FC08130910509F492C0009709F411
:101E60008FC0049708F08CC0D0E0C0E089C08F3BE1
:101E7000910508F489C0805C9109C03CD105A0F3AC
:101E80000E94050FEC017CC08115904250F4C115F1
:101E900081E0D80708F074C0C03FD10528F3D065B1
:101EA0006FC0C11590E3D90708F079C0CE019F70CB
:101EB000E7CF811525E5920758F5811534E593079D
:101EC00008F0A6C0811542E5940750F4C11581E5DC
:101ED000D80708F471C0DC2FCC27C16FD06A50C07E
:101EE000982F969596959E0123703327C115D3455B
:101EF00008F07FC0C1E0D0E002C0CC0FDD1F2A9502
:101F0000E2F720E2929FC0011124C82BD92B6FC0A9
:101F1000C11589E5D807A8F4C11598E5D90708F0D7
:101F20007CC0C11526E5D20708F09ECF8C2F0E94F9
:101F3000BB10C82FD0E0DC2FCC27CC27DF71D062BC
:101F40001FC0C1153AE5D30708F46CC0CE01905606
:101F50008115904208F088CF8D2F8F710E94BB10A1
:101F600090E0982F882788279F719C012C2BE901EE
:101F7000E6CFC55AD0E0C858DE4FC881D0E0D06463
:101F8000CE01DF91CF910895C85AD0E0CC0FDD1F6C
:101F9000C65BDE4F0990D881C02DD464F1CFCE014D
:101FA0009927D3FF03C0EC01D86CEACFEC01D06CC9
:101FB000E7CFDF70D06AE4CFCE01E4E09695879555
:101FC000EA95E1F783702C2F26952695237090E2F1
:101FD000299F90011124382B8C2F8370C1E0D0E011
:101FE00002C0CC0FDD1F8A95E2F7C22BD32BDC6831
:101FF000C7CFC1E0D0E002C0CC0FDD1F2A95E2F7C9
:1020000030E2939FC0011124C82BD92BDA68B8CFD6
:10201000D82FCC27C46FD06AB3CFDC2FCC27C06FAA
:10202000D06AAECF8C2F8F700E94BB1034E0D69553
:10203000C7953A95E1F7CF709C2FEC01D069A0CFFE
:102040000E941F180C940D0F82389105B1F1B0F465
:102050008133910509F475C048F48932910509F47A
:1020600069C08A32910509F473C0089585339105DA
:1020700009F459C08933910501F10895833E910512
:10208000A9F138F4803E9105F9F0823E910549F1BD
:102090000895863E9105A9F1873E9105C9F1843ED8
:1020A000910519F52091430221FF1FC08091420242
:1020B00084FD14C087EE90E00895209142022370C1
:1020C000A1F080EE90E008952091420220FD47C0EB
:1020D0003091430230FF09C024FF44C090E080E00B
:1020E00004C02091420222FDF7CF089520914202C0
:1020F00022FD3BC03091430230FDE3CF24FFF5CFFA
:10210000EDCF2091420223FFF0CF24FDE7CFD2CFC5
:102110002091420223FD2CC03091430231FFEECFCB
:1021200084EE90E008952091420225FFDECF89E2FF
:1021300090E008952091420225FFD7CF85E390E0FB
:1021400008952091420226FFD0CF8AE290E00895C0
:102150002091420226FFC9CF81E390E0089589E3F0
:1021600090E0089583EE90E0089582EE90E0089567
:1021700086EE90E008959091420292FF06C0282FCB
:1021800028712830F9F4877F846093FF06C0282FD8
:1021900028712831F1F4877E84612091430220FF69
:1021A00006C0382F38713830D9F4877F816021FF1D
:1021B00006C0282F28712831D1F4877E816194FDD3
:1021C000877E0895282F24712430F9F68B7F88604C
:1021D000DCCF282F2471243101F78B7E8861DDCF7D
:1021E000382F3171313019F78E7F8860E0CF282F7A
:1021F0002171213121F78E7E8861E1CF80E0089541
:102200000C94760D0E94E1112FEF86E791E02150AA
:1022100080409040E1F700C000000E94E11180E0A2
:102220000E94391180FF04C00E9400110C94D41B3D
:1022300008950C9402110E947C0D811102C00E942D
:10224000200E0E94870D809300020E948F0D9093B4
:102250004302809342020E9419110E948B0D0E943A
:102260002208809196010C9435080C9435020C9448
:102270003602E82FF0E0EA5BFD4F80810895089573
:1022800080EA8A95F1F7089500C008950C944011F2
:10229000F894E82FE295EF70F0E031A1282F2F702D
:1022A00081E090E001C0880F2A95EAF7982F909579
:1022B000932391A392A1892B82A37894089586E316
:1022C0000E94481182E30E94481185E30E94481150
:1022D00084E30E94481186EC0C944811CF92DF925F
:1022E000EF92FF920F931F93CF93DF93EC01D62EC3
:1022F000062F10E0C80182589E4F7C01FC018081AE
:102300008F3F09F444C0F894E82FE295EF70F0E0B5
:1023100091A18F7021E030E001C0220F8A95EAF789
:10232000892F822B81A382A12095282322A3789430
:102330000E944411EBE7F1E031E0C12C21912F3FE5
:1023400079F1A22FA295AF70B0E090968C9190E0B9
:102350002F7002C0959587952A95E2F780FD20C0E1
:10236000832FC82A330F81E0EE37F80739F7F701DA
:1023700080818F3F11F00E94481161E0C11001C0BF
:1023800060E08D2D0E944611C00FD11FC882DF91E1
:10239000CF911F910F91FF90EF90DF90CF90089514
:1023A00080E0DFCF0E945F11109247021092460238
:1023B000109245021092440282E00E9419120C947D
:1023C000B0021F93CF93DF9300D0CDB7DEB71A8250
:1023D000198260E0CE0101960E946E1161E0CE018B
:1023E00001960E946E1142E050E0BE016F5F7F4F88
:1023F00084E492E00E94B52311E0009709F410E014
:10240000892B31F089819A8190934502809344020F
:10241000212F42E066E472E084E492E00E941A1206
:102420000E94B602812F0F900F90DF91CF911F91E4
:1024300008950895FF920F931F93CF93DF93F82E83
:10244000092F162FD72FC42F222349F081E0809324
:1024500003020E94891B90930202809301028091E3
:1024600003028823A1F080910102909102020E9450
:10247000A11B059760F0EF2DF02FA12FBD2FCE0FE0
:10248000DF2FD11DEC17FD0741F410920302DF91FD
:10249000CF911F910F91FF90089581918D93F2CF6D
:1024A0000E94CF1D0E945C0E0C94DB1D0E94DF1D5C
:1024B0000E94640E0C94F91D0E94121B0E94B61D0E
:1024C0000E94480E0E9450120E9456120E94580EFE
:1024D000FBCF80910A0280FF12C06091090185E064
:1024E000689FB0011124759567957595679560385B
:1024F0007105A8F561157105A1F1862F089581FF79
:1025000009C06091090185E0689FB00111247595AB
:102510006795EDCF6091090182FD0AC080910902A3
:102520008823D1F09091080160910901891728F062
:1025300085E0689FB0011124DACF869FB001112495
:1025400085E0869F9001879F300D1124692F70E0F0
:10255000C9010E948023CBCF65E070E0CECF8FE72A
:10256000089581E0089580910A0280FF0CC0609177
:10257000050170E07595679575956795611571050D
:1025800049F1862F089581FF06C06091050170E032
:1025900075956795F3CF6091050182FD0BC0909111
:1025A00008029923A1F0609104018091050196171A
:1025B00038F0682F70E06038710500F38FE70895F8
:1025C000899FC001112470E00E948023F4CF61E054
:1025D00070E0D7CF81E00895803F31F40E94691206
:1025E000819580930E020895813F19F40E9469122B
:1025F000F8CF823F31F40E946912819580930D02D9
:102600000895833F19F40E946912F8CF893F29F495
:102610000E94B31280930F0208958A3F21F40E9412
:10262000B3128195F7CF8B3F31F40E94B31281959D
:102630008093100208958C3F19F40E94B312F8CFD2
:102640009CE0980F953070F4845F990B21E030E0A6
:1026500001C0220F8A95EAF780910C02822B8093A9
:102660000C0208958D3F31F480910A0281608093BD
:102670000A0208958E3F21F480910A028260F7CF0A
:102680008F3FB9F780910A028460F1CF40910D022B
:10269000803F59F480910E0287FF0DC010920E0208
:1026A00041110BC01092090208C0813F81F4809152
:1026B0000E0218169CF3442381F080910F02909132
:1026C0001002892B09F05AC0109208020895823F27
:1026D00049F447FFF0CF10920D0280910E02811154
:1026E000ECCFE0CF833F19F41416ACF3E4CF909114
:1026F0000F02893F29F41916F4F610920F02DBCF6E
:102700008A3F19F497FFD7CFF8CF909110028B3FF3
:1027100029F497FFD0CF10921002CDCF8C3F19F43F
:102720001916CCF3C8CF9CE0980F953090F4845FD5
:10273000990B21E030E0B90102C0660F771F8A953E
:10274000E2F7CB01809590910C02892380930C02D3
:10275000B2CF8D3F31F480910A028E7F80930A02BE
:10276000AACF8E3F21F480910A028D7FF7CF8F3F51
:1027700009F0A1CF80910A028B7FF0CF08950E94CB
:10278000891B9C0190910D0280910E02982B21F0E3
:10279000309307022093060290910F02809110025D
:1027A000982B21F030930502209304028BE092E0F5
:1027B0000C94021AEF92FF920F931F93CF93DF9323
:1027C00000D000D000D0CDB7DEB786E0EBE0F2E07D
:1027D000DE01119601900D928A95E1F7E0900D02CD
:1027E000F0900E0200910F021091100210920D0253
:1027F00010920E0210920F02109210028E2D8F294D
:1028000091F080910602909107020E94A11BAC01F9
:1028100090910902992309F43FC080910A0184171D
:10282000150608F447C0802F812B91F08091040297
:10283000909105020E94A11BAC019091080299237E
:1028400009F477C0809106018417150608F47FC04B
:1028500080910D0290910E02892B90910F02892B8D
:1028600090911002892B11F00E94BF1386E0FE01A7
:102870003196ABE0B2E001900D928A95E1F7269691
:102880000FB6F894DEBF0FBECDBFDF91CF911F9181
:102890000F91FF90EF90089520910B018AE0289FFF
:1028A000900111242417350708F0BDCF9F5F909346
:1028B000090202C09F3FD1F7EE2059F00E94691231
:1028C0009FEF1E140CF491E0899F802D11248093BA
:1028D0000D02FF2059F00E9469129FEF1F140CF4A3
:1028E00091E0899F802D112480930E0230910D027A
:1028F000332309F498CF20910E02222309F493CFB9
:1029000045EB3403C0011124992359F090930D0233
:1029100045EB240390011124332339F030930E0248
:1029200082CF81E080930D02F3CF81E080930E028D
:102930007ACF209107018AE0289F90011124241763
:10294000350708F085CF9F5F9093080202C09F3F34
:10295000D1F7002359F00E94B3129FEF10160CF428
:1029600091E0899F802D112480930F02112359F04B
:102970000E94B3129FEF11160CF491E0899F802DF5
:1029800011248093100230910F02332309F460CF99
:1029900020911002222309F45BCF45EB3403C001E0
:1029A0001124992359F090930F0245EB24039001D1
:1029B0001124332339F0309310024ACF81E0809301
:1029C0000F02F3CF81E08093100242CF86E0EBE06C
:1029D000F2E0DF011D928A95E9F710920902109248
:1029E000080210920A02089583E290E00E94C22336
:1029F000823289F484E290E00E94C223853059F447
:102A000085E290E00E94C22391E0873009F090E0D7
:102A1000892F8170089580E0FCCFCF93C82F6FEF8E
:102A2000811162E283E290E00E94D0236FEFC11136
:102A300065E084E290E00E94D0236FEFC11167E06F
:102A400085E290E0CF910C94D023089586E290E047
:102A50000E94C223682F70E090E080E0089586E233
:102A600090E00C94D02380E00E940D1560E070E0AF
:102A7000CB010E942F150E9499170E94831881E0B4
:102A80000C940D150E9425150E94F414811102C0AA
:102A90000C9433150895CF93FB01C281CC2309F127
:102AA0009C0122513F452031310520F582510E9481
:102AB0009318C0E08C2FCF91089581E00E944808C0
:102AC00043E062E081E00E94A702F3CF81E00E9430
:102AD000530843E062E081E00E94A702EBCF82E06E
:102AE000F6CF8031FFE59F0789F381319F45B9F328
:102AF000C1E0E0CF8031EFE59E07F9F281319F45DB
:102B0000C9F682E0DBCF2FEFFC01208308951F93ED
:102B1000CF93DF93EC01162FE881E150E33108F009
:102B200055C0F0E0EC5DFB4D0C949423198289E0D4
:102B30008A83612FCE01DF91CF911F910C948F1C5E
:102B400089818230B1F0833059F08130A9F40E943C
:102B5000951B0E949A236A837B838C839D83E9CF94
:102B600080E00E9439118A8381E00E9439118B83B1
:102B7000E0CF0E942615EDCF612FCE010E94831574
:102B8000D8CF89818230C1F76A817B818C819D8118
:102B90000E949A230E942F15CCCF4B816A81898194
:102BA0000E946B179827892798279D838C83C1CF14
:102BB0002C813D813227232732274B816A818981ED
:102BC0000E948417B6CF0E949917B3CF8FEF8883E6
:102BD000B0CF0E942C188983ACCF0E942E18982762
:102BE000892798279A838983A4CF6B8170E0898194
:102BF0009A81AE014C5F5F4F9827892798270E94E2
:102C0000311897CF6B8170E089819A81AE014C5F5A
:102C10005F4F9827892798270E9458188ACF0E94CB
:102C2000831887CF0E945917D6CF6B8170E08981B6
:102C30009A81AE014C5F5F4F9827892798270E94A1
:102C4000D11777CF6B8170E089819A81AE014C5F9B
:102C50005F4F9827892798270E94F6176ACFCF934E
:102C6000DF93EC01FB018281882309F420C1C3308A
:102C7000FDE5DF07C8F5CA3F9CE5D90730F49E01A2
:102C800022503C452431310598F50E948F0D9093D8
:102C9000430280934202C031FCE5DF0709F4E0C043
:102CA00008F061C0C8309CE5D90709F4CBC088F5AD
:102CB000C430FCE5DF0709F4B3C0E8F4C2309CE59A
:102CC000D90709F4A7C0809142028260C330DC4575
:102CD00009F4A3C080914202909143020E949D0D8D
:102CE0000E94CF0780E004C0C136EDE5DE0769F23F
:102CF000DF91CF910895809142028061C630FCE55A
:102D0000DF0709F48AC008F48FC080914202806214
:102D100084C0809142028D7FCC309CE5D90709F4B4
:102D20007CC070F4809142028C60CA30FCE5DF0701
:102D300009F473C008F48AC0809142028E7F6DC08E
:102D400080914202877FCE309CE5D90709F465C0A7
:102D5000809142028B7FCF30DC4508F45EC08091C9
:102D600042028F7E5AC0CC3FFCE5DF0709F474C0F5
:102D700040F5C4319CE5D90709F48AC058F4C23142
:102D8000FCE5DF0709F474C008F46EC080914202CC
:102D9000837F43C0CA3F9CE5D90709F449C008F0C6
:102DA0004DC0C531DC4509F095CF8091420282FBD0
:102DB000992790F921E0922790FB82F990FB83F903
:102DC0002CC0C1158DE5D80709F458C088F480914E
:102DD00043028360CE3FECE5DE0769F18091430258
:102DE0008D7FCF3FDC4538F1809143028C7F23C03B
:102DF000C2308DE5D80709F458C008F452C0C13676
:102E0000DD4509F067CF90914202892F8F7E94FFB4
:102E1000806103C0809142028160809342025ACF58
:102E2000809142028460F9CF809142028860F5CFA0
:102E3000809143028160809343024CCF8091430292
:102E40008260F9CF809142028064E7CF0E94CF0771
:102E5000809142028068E1CF809143028E7FEBCF68
:102E6000809142028F7DD9CF809142028F7BD5CF56
:102E70000E94CF07809142028F77CFCF809143028B
:102E8000982F909591708E7F892B90FB81F9D3CFED
:102E90000E94CF0790914202892F97FB87F98058B3
:102EA000BCCF81E00E94220E15CF80E0FBCF81E0F5
:102EB0001FCF84E0089550E0440F551F96E0699FAE
:102EC000400D511D11249CE0899F400D511D11247E
:102ED000CA01879608950F931F93CF93DF930E94A3
:102EE0005B178C010E94C223C82FD0E0DC2FCC27B7
:102EF000C80101960E94C2239E01282BC901DF91BF
:102F0000CF911F910F9108950F931F93CF93DF934C
:102F1000122F032F0E945B17EC01602F0E94D02319
:102F2000612FCE010196DF91CF911F910F910C94EB
:102F3000D023EF92FF920F931F93CF93DF930CEA6E
:102F400010E0C0E07801D0E0F701259134914D2FD9
:102F500060E08C2F0E94841782E0E80EF11CDF5F96
:102F6000D33091F7780186E0E80EF11CD0E0F7014C
:102F7000259134914D2F61E08C2F0E94841782E0BF
:102F8000E80EF11CDF5FD33091F7045F1F4FCF5F76
:102F9000C430C1F6DF91CF911F910F91FF90EF9058
:102FA0000895EF92FF920F931F93CF93DF93EC015D
:102FB0008A017C01E60EF71ECE018796CE15DF054D
:102FC00039F4DF91CF911F910F91FF90EF90089509
:102FD000C033D10540F40E94C223F80180830F5F03
:102FE0001F4F2196E9CFF8011082F9CFCF92DF92DF
:102FF000EF92FF920F931F93CF93DF937C016A01AF
:103000008C01060F171FEC01CE018796C017D10760
:1030100049F4DF91CF911F910F91FF90EF90DF90D6
:10302000CF900895C033D10540F4FE01EE19FF0999
:10303000EC0DFD1D60810E94D0232196E5CF462F27
:10304000843038F4723028F4633018F4672F0C940D
:103050006B1790E080E0089580E1089589EA93E09D
:103060000895EF92FF920F931F93CF93DF93EC019C
:103070008A017C01E60EF71ECE01895A9F4FCE15BC
:10308000DF0539F4DF91CF911F910F91FF90EF9001
:103090000895C93A23E0D20740F40E94C223F80100
:1030A00080830F5F1F4F2196E7CFF8011082F9CF81
:1030B000CF92DF92EF92FF920F931F93CF93DF9304
:1030C0007C016A018C01060F171FEC01CE01895AA1
:1030D0009F4FC017D10749F4DF91CF911F910F91F6
:1030E000FF90EF90DF90CF900895C93A23E0D20788
:1030F00040F4FE01EE19FF09EC0DFD1D60810E94F8
:10310000D0232196E3CFCF93DF93C7E5D0E060E0F3
:10311000CE010E94D0232196C11584E0D807B9F7CB
:10312000DF91CF910895DF92EF92FF920F931F935B
:10313000CF93DF9300D000D0CDB7DEB7F82E8FE06D
:103140008F1540F08FEF93E00E94C22307E510E057
:103150008823C1F00F900F900F900F90DF91CF91C7
:103160001F910F91FF90EF90DF900895011584E07B
:10317000180781F3C8010E94C223811101C0FA948B
:103180000F5F1F4FF110F2CF19821A821B821C822F
:10319000DD24D39478018FEFE81AF80AC8010E9461
:1031A000C22389831A828823A9F29FEF980F933054
:1031B00078F48A83D9820E5F1F4FC7010E94C22311
:1031C0008B83882339F2CE0101960E94FF03E2CF60
:1031D0008701F9CFCF93DF93EB0186319C4511F541
:1031E0000E94950C9A81992399F08A7A91E009F4CA
:1031F00090E090931102811109C089E20E94700C45
:103200000E94E50C80E0DF91CF91089585E3F6CF31
:1032100080911102811104C089E20E94770CF0CFE5
:1032200085E3FBCF81E0EFCF0F931F93CF93DF9325
:10323000C42FD22FFC0182818823C9F0409314024D
:103240000E94891B909313028093120280E28C0FDC
:10325000883008F050C0C77081E001C0880FCA955F
:10326000EAF7DF91CF911F910F910C945B051091BC
:103270001402141335C080911202909113020E941F
:10328000A11B883C910560F5C0E2CD0F1D17B9F078
:1032900080E2810F883040F4177081E001C0880F10
:1032A0001A95EAF70E946205C83048F481E09D2F24
:1032B000977001C0880F9A95EAF70E945B05802FEE
:1032C0000E945305C830B8F4D77081E001C0880F60
:1032D000DA95EAF7DF91CF911F910F910C94620577
:1032E00080E28C0F883038F4C77081E001C0880F0D
:1032F000CA95EAF7EFCFDF91CF911F910F91089513
:103300000F939C01CB01233F4CE5340759F1A8F4FE
:10331000283DFCE53F0701F1293D4CE53407D1F19B
:10332000273D3C4591F406E221EE41EE67ED7CE558
:103330000E94141980E00F910895253FFCE53F0796
:10334000E9F0B0F0263F3C45F9F0FC01828188238A
:1033500039F110921402EFCF07E225EE45EE68ED49
:103360007CE5E6CF06E221EE40EE63EF7CE5E0CFC0
:1033700007E225EE44EE64EF7CE5DACF06E221EECB
:1033800042EE65EF7CE5D4CF07E225EE46EE66EF30
:103390007CE5CECF08E221E045EE69ED7CE5C8CFC3
:1033A00081E0C9CF9093910180939001089590930B
:1033B0001A02809319020895E0911902F0911A02FD
:1033C000309721F00190F081E02D099480E008957C
:1033D000E0911902F0911A02309799F020911801AA
:1033E000222359F02091420227FF07C0DC012C91D3
:1033F00011962C93119726E02C930280F381E02DF7
:1034000009940895E0911902F0911A02309739F069
:1034100022E0DC012C930480F581E02D09940895CD
:1034200020911702309118022817390771F09093F4
:10343000180280931702E0911902F0911A02309756
:1034400021F00680F781E02D09940895209115025E
:10345000309116022817390771F090931602809365
:103460001502E0911902F0911A02309721F00084C0
:10347000F185E02D09940895FC01329680911801A0
:10348000882321F0809142029EE187FF96E080E050
:10349000915008F4089521912223D1F38F5FF8CF42
:1034A000662301F1209118012223F1F020914202BC
:1034B00027FF1AC0462F4695469546954E3190F403
:1034C000677021E030E002C0220F331F6A95E2F7F7
:1034D000840F911DFC01828190E02823392381E033
:1034E000232B69F480E00895FC013296089621911F
:1034F000261721F0E817F907D1F7F4CF81E00895F6
:103500009C01FC0132969FEF80E04191461751F0FB
:103510009F3F19F4411101C0982F8F5F8630A9F7A2
:103520009F3F09F40895290F311D97FD3A95F90140
:1035300062830895FC01329608962191261303C0F8
:10354000DF0111971C92E817F907B9F70895E62FE4
:10355000E695E695E695EE3168F4E80FF92FF11D52
:10356000677021E030E001C0220F6A95EAF782819E
:10357000822B82830895E62FE695E695E695EE3157
:1035800070F4E80FF92FF11D677021E030E001C001
:10359000220F6A95EAF720958281282322830895D5
:1035A00020911801222329F02091420227FD0C943A
:1035B000A71A0C94801A20911801222329F0209137
:1035C000420227FD0C94BB1A0C949A1AFC01329605
:1035D00080911801882351F08091420287FF06C034
:1035E0008EE1DF011D928A95E9F7089586E0F9CF13
:1035F00008950C94F81A811105C081E080931B0294
:103600000C94F91A82E0FACF83E080931B020C94A9
:10361000F91A0C94FB1A81E080931B020C94F91A9E
:103620000C940B1B089580915002843031F10E945C
:10363000BC0210921C0288E190E020E40FB6F894DE
:10364000A895809360000FBE2093600083B7817FB0
:10365000846083BF83B7816083BF7894889583B784
:103660008E7F83BF0FB6F894A89580916000886123
:1036700080936000109260000FBE08950895089531
:103680000E943E1B0E94E1110E943F1B80E00E94AD
:10369000391191E0811107C081E00E94391191E058
:1036A000811101C090E0892F08950E94CF070C94EA
:1036B0002B031F921FB61F9211248F939F93AF93DA
:1036C000BF9380911C02811113C080914802909198
:1036D0004902A0914A02B0914B024196A11DB11D31
:1036E0008093480290934902A0934A02B0934B0200
:1036F000BF91AF919F918F911F901FBE1F90189502
:1037000082E084BD93E095BD9AEF97BD80936E00F3
:1037100008952FB7F8948091480290914902A091A2
:103720004A02B0914B022FBF08952FB7F8946091D1
:1037300048027091490280914A0290914B022FBF3A
:1037400008959C014FB7F8948091480290914902E6
:10375000A0914A02B0914B024FBF821B930B089578
:1037600078941F921FB61F9211248F939F93AF934B
:10377000BF938091480290914902A0914A02B09172
:103780004B020196A11DB11D8093480290934902FE
:10379000A0934A02B0934B02BF91AF919F918F913A
:1037A0001F901FBE1F90189581E08093E00080E27B
:1037B0008093D8001092C9008FE19EE40197F1F741
:1037C00000C0000087E090EBDC01809359029093E9
:1037D0005A02A0935B02B0935C0288E19CE00FB6B2
:1037E000F894A895809360000FBE90936000FFCF7F
:1037F00080914002089508959C0184E08093E9003F
:103800009FEF8091E800915085FD06C085ED8A9577
:10381000F1F700009111F5CF8091E80085FF0CC011
:1038200050E040E066E070E0C9010E94A01E809177
:10383000E8008E778093E8000895CF93DF93EC0142
:10384000809118018823B1F18091420287FF32C034
:1038500060E284E08093E9008FEF9091E80081506E
:1038600095FD06C095ED9A95F1F700008111F5CF11
:103870008091E80085FF1BC08091180170E050E046
:1038800040E0811104C050E040E068E070E0CE010B
:103890000E94A01E8091E8008E778093E80080E26D
:1038A000FE01A0E2B2E001900D928A95E1F7DF916E
:1038B000CF91089568E081E0CDCF80931D02709391
:1038C0001F0260931E02809150028430F9F48093AD
:1038D000E9008FEF9091E800815095FD06C095EDCD
:1038E0009A95F1F700008111F5CF8091E80085FFEE
:1038F0000DC050E040E063E070E08DE192E00E9496
:10390000A01E8091E8008E778093E8000895BC01A6
:1039100084E00C945D1CBC0183E00C945D1CCF938F
:10392000FC01603221F580915002843001F5C09194
:10393000E900CF702091EC00922F917020FD90E86B
:10394000C92B82E08093E9008091E80080FF0CC0E1
:1039500050E040E060E270E0CF010E94A01E809144
:10396000E8008E778093E800CF70C093E900CF9194
:10397000089580914F02811109C00E947F200E940A
:10398000DC208091E20084608093E2000895109230
:103990004F0208950C940B1B60914C0281E0611161
:1039A00001C080E00C94041B9091500281E094309F
:1039B00009F080E060914C020C94091B42E061EC3C
:1039C00081E00E94FB1F42E261EC84E00E94FB1F49
:1039D00042E261EC82E00E94FB1F42E260EC83E085
:1039E0000E94FB1F9091500281E0943009F080E02A
:1039F00060914C020C94FB1A80915202833009F4BE
:103A000062C030F48130D9F1823009F49EC008954B
:103A10008A3009F48AC08B3009F470C0893009F00B
:103A200051C080915102813209F04CC08091550201
:103A300090915602009719F0029709F043C08091C7
:103A4000E800877F8093E8008091E80082FF36C01D
:103A50009091F3008091F200029731F48091F1008F
:103A6000813011F0863021F48091F1008093400282
:103A70008091E8008B778093E8000C942F20809150
:103A80005102813AF9F48091E800877F8093E80041
:103A90008091550290915602892B61F460E280E298
:103AA00092E070E00E943E1F8091E8008B77809347
:103AB000E800089560E090E080E0F3CF809150024C
:103AC0008111C2CF089580915102813AD9F7809136
:103AD000550290915602892BA9F78091E800877FC3
:103AE0008093E8008091E80080FFFCCF809118016E
:103AF0008093F1008091E8008E77BDCF80915102D4
:103B0000813201F78091550290915602892BD1F6AE
:103B10008091E800877F8093E8000E942F208091A9
:103B20005302809318010C94CF0780915102813287
:103B300049F68091E800877F8093E8000E942F205B
:103B40008091540280934102089580915102813AFC
:103B500009F0B8CF8091E800877F8093E8008091DA
:103B6000E80080FFFCCF80914102C2CF84B7877FFD
:103B700084BF0FB6F894A895809160008861809307
:103B80006000109260000FBE80E890E00FB6F894DD
:103B900080936100909361000FBE0C94101B0E94F3
:103BA0007F200E94DC20E2EEF0E080818460808350
:103BB00078940C9465238CE091E00C94D719809153
:103BC00050028530A9F480915002853011F00C9498
:103BD000551B0E94131B80914E028823A1F30E9463
:103BE000401B882381F30E948A1E0E94CF07EBCFDF
:103BF0000895CF93DF93CDB7DEB7A0970FB6F894B3
:103C0000DEBF0FBECDBF80915002843009F583E046
:103C10008093E9008091E80082FF1AC08091E8005B
:103C200090E085FF09C050E040E060E270E0CE0126
:103C300001960E94EF1E91E08091E8008B778093BF
:103C4000E800992329F060E2CE0101960E948715D1
:103C5000A0960FB6F894DEBF0FBECDBFDF91CF9117
:103C600008950C94331E292F33272330310521F179
:103C700068F42130310509F443C02230310509F4DC
:103C800044C090E080E030E020E026C021323105E1
:103C900051F122323105A9F76330710590F7FB012C
:103CA000EE0FFF1FED57FE4F2081318160587E4F90
:103CB000FB01808190E010C099278130910581F04F
:103CC000009729F00297E9F6ECE1F2E002C0E8E49F
:103CD000F2E0849190E09F01FA01318320830895FE
:103CE000E0E3F2E0F6CF6330710558F6660F771F18
:103CF000FB01E757FE4F2081318189E090E0ECCF56
:103D000082E190E027EA32E0E7CF8BE590E02CE417
:103D100032E0E2CF80E189BD82E189BD09B400FED5
:103D2000FDCF8091D8008F7D8093D8008091E000F6
:103D300082608093E0008091E00081FDFCCF0895D7
:103D4000AF92BF92CF92DF92FF920F931F93CF93C8
:103D5000DF936C01EB018A010E944E20F82E811145
:103D600023C00115110539F0F80180819181C81B2C
:103D7000D90BC80ED91EB12CA12C2097A9F0809187
:103D8000E80085FD22C08091E8008E778093E800EE
:103D900001151105A1F0F80180819181A80EB91ECD
:103DA000B182A08285E0F82E8F2DDF91CF911F91F7
:103DB0000F91FF90DF90CF90BF90AF9008950E9439
:103DC0004E208823D1F2F82EEFCFF60181916F01BA
:103DD0008093F1002197FFEFAF1ABF0ACECFAF92C9
:103DE000BF92CF92DF92FF920F931F93CF93DF93F7
:103DF0006C01EB018A010E944E20F82E811123C034
:103E00000115110539F0F80180819181C81BD90B8A
:103E1000C80ED91EB12CA12C2097A9F08091E800E2
:103E200085FD22C08091E8008B778093E800011522
:103E30001105A1F0F80180819181A80EB91EB1820F
:103E4000A08285E0F82E8F2DDF91CF911F910F91E9
:103E5000FF90DF90CF90BF90AF9008950E944E20CA
:103E60008823D1F2F82EEFCF8091F100F6018193F3
:103E70006F012197FFEFAF1ABF0ACECFFC018091EF
:103E800057029091580286179707A0F061157105A7
:103E900029F49091E8009E779093E80090E06115F6
:103EA000710551F4911108C08091E80082FF34C07F
:103EB00080E00895BC01F2CF809150028823C1F1C7
:103EC0008530C1F18091E80083FD30C08091E80029
:103ED00082FDEACF8091E80080FFE1CF8091F3007E
:103EE0002091F200382F6115710519F02830310545
:103EF00058F091E02830310509F090E02091E80079
:103F00002E772093E800CBCF81918093F100615010
:103F100071092F5F3F4FE7CF80915002882341F016
:103F2000853041F08091E80083FFBECF81E00895A5
:103F300082E0089583E00895FC01809157029091FA
:103F4000580286179707A0F06115710529F4809132
:103F5000E8008E778093E80090E06115710551F4D8
:103F6000911108C08091E80082FF35C080E008957B
:103F7000BC01F2CF809150028823C9F18530C9F18C
:103F80008091E80083FD31C08091E80082FDEACF96
:103F90008091E80080FFE1CF8091F3002091F20052
:103FA000382F6115710519F02830310558F091E06E
:103FB0002830310509F090E08091E8008E778093F9
:103FC000E800CBCF84918093F10031966150710964
:103FD0002F5F3F4FE6CF80915002882341F085301C
:103FE00041F08091E80083FFBDCF81E0089582E039
:103FF000089583E00895982F973028F08F7080936C
:10400000E90081E008959093E900242F762F50E095
:10401000981731F07091EC002091ED005091F00074
:1040200021FD02C09F5FE8CF3091EB003E7F3093CF
:10403000EB003091ED003D7F3093ED003091EB00CF
:1040400031603093EB007093EC002093ED005093BF
:10405000F0002091EE0027FDE5CF80E008958091EB
:10406000510287FF13C08091E80082FF06C0809153
:10407000E8008B778093E80004C0809150028111A2
:10408000F2CF0895809150028823D9F38091E800FF
:1040900080FFF8CF8091E8008E77ECCF2091E4008C
:1040A0003091E50095E6A9012091EC00822F817006
:1040B00020FF06C08091E80080FF06C080E00895E0
:1040C0002091E80022FD1AC080915002882389F0D7
:1040D000853089F08091EB0085FD0FC02091E400D0
:1040E0003091E50042175307F9F29150E1F684E070
:1040F000089582E0089583E0089581E008950E9484
:10410000ED200E94F520E0EEF0E080818160808368
:10411000E8EDF0E080818F77808319BCA7EDB0E0F7
:104120008C918E7F8C9380818F7E808310924F0242
:1041300008950F931F93CF93DF930E94ED200E9469
:10414000F520C8EDD0E088818F77888388818068EA
:10415000888388818F7D888319BC109250021092C9
:104160004C0210924E0210924D0200EE10E0F80147
:1041700080818B7F808388818160888342E060E0DA
:1041800080E00E94FB1FE1EEF0E080818E7F808363
:10419000E2EEF0E0808181608083808188608083AE
:1041A000F80180818E7F8083888180618883DF91A0
:1041B000CF911F910F910895E8EDF0E080818F7EFF
:1041C0008083E7EDF0E080818160808384E082BFBE
:1041D00081E080934F020C949920E8EDF0E080811B
:1041E0008E7F80831092E20008951092DA00109280
:1041F000E10008951F920F920FB60F9211242F9392
:104200003F934F935F936F937F938F939F93AF935E
:10421000BF93EF93FF938091E10082FF0BC08091E9
:10422000E20082FF07C08091E1008B7F8093E10074
:104230000E9464238091DA0080FF19C08091D80029
:1042400080FF15C08091DA008E7F8093DA00809124
:10425000D90080FF96C080E189BD82E189BD09B4A3
:1042600000FEFDCF81E0809350020E94B91C809136
:10427000E10080FF19C08091E20080FF15C08091AD
:10428000E2008E7F8093E2008091E2008061809363
:10429000E2008091D80080628093D80019BC85E04C
:1042A000809350020E94CC1C8091E10084FF2BC0BF
:1042B0008091E20084FF27C080E189BD82E189BD51
:1042C00089B5982F917080FFFBCF8091D8008F7DAA
:1042D0008093D8008091E1008F7E8093E1008091EF
:1042E000E2008F7E8093E2008091E2008160809303
:1042F000E20080914C02882309F449C084E0809355
:1043000050020E94D41C8091E10083FF29C080915B
:10431000E20083FF25C08091E100877F8093E10068
:1043200082E08093500210924C028091E1008E7FD7
:104330008093E1008091E2008E7F8093E200809183
:10434000E20080618093E20042E060E080E00E9451
:10435000FB1F8091F00088608093F0000E94CA1CCF
:10436000FF91EF91BF91AF919F918F917F916F914D
:104370005F914F913F912F910F900FBE0F901F9023
:10438000189519BC109250020E94C71C70CF8091E2
:10439000E30087FD93E090935002B3CF1F920F92FA
:1043A0000FB60F9211242F933F934F935F936F9308
:1043B0007F938F939F93AF93BF93CF93DF93EF93AD
:1043C000FF93D091E900DF708091EC00C82FC1709D
:1043D00080FDC0E81092E9008091F000877F809313
:1043E000F00078940E9412221092E9008091F0006F
:1043F00088608093F000CD2BCF70C093E900FF91CF
:10440000EF91DF91CF91BF91AF919F918F917F916C
:104410006F915F914F913F912F910F900FBE0F9031
:104420001F9018951F93CF93DF93CDB7DEB7AA9750
:104430000FB6F894DEBF0FBECDBF81E592E02091AC
:10444000F100FC012193CF01F2E089359F07B9F714
:104450000E94FC1C8091E80083FF1EC180915102E4
:10446000909152029A3008F017C1E92FF0E0E95C10
:10447000FB4D0C949423803899F0823809F00CC1DC
:10448000809155028F70873008F006C18093E90053
:104490008091EB0085FB882780F91092E90006C027
:1044A00080914D0290914E02911182609091E800AE
:1044B000977F9093E8008093F1001092F100809133
:1044C000E8008E77E5C0882309F4D3C0823009F074
:1044D000E3C0809153028111D6C0809155028F7044
:1044E0002FEF280F263008F0D7C08093E9002091E5
:1044F000EB0020FFC8C0933031F48091EB00806264
:104500008093EB00C0C09091EB0090619093EB0022
:1045100021E030E001C0220F8A95EAF72093EA00FB
:104520001092EA008091EB008860EACF8111B4C05C
:10453000109153021F778091E3008078812B809344
:10454000E3008091E800877F8093E8000E942F209D
:104550008091E80080FFFCCF8091E3008068809329
:10456000E30082E0111183E08093500295C08058EF
:10457000823008F091C080915302909154028C3D9A
:1045800023E09207A1F583E08A838AE289834FB70B
:10459000F894DE01139620E03EE051E2E32FF0E0D4
:1045A00050935700E49120FF03C0E295EF703F5F06
:1045B000EF708E2F90E0EA30C0F0C7968D939D93F8
:1045C0002F5F243159F74FBF8091E800877F809398
:1045D000E8006AE270E0CE0101960E943E1F8091E1
:1045E000E8008B778093E80057C0C096E7CF6091D2
:1045F000550270915602AE014F5F5F4F0E94311E0F
:10460000BC01892B09F448C09091E800977F9093F2
:10461000E80089819A810E949C1FE1CF8038E1F5F2
:104620008091E800877F8093E80080914C0280931E
:10463000F10045CF811130C090915302923060F566
:104640008091E800877F8093E80090934C020E945D
:104650002F2080914C02882311F084E005C08091C6
:10466000E30087FDFACF81E0809350020E94DE1CB8
:1046700013C080915302813079F481E0933009F0C6
:1046800080E080934E021092E9008091E800877FDD
:104690008093E8000E942F208091E80083FF0AC0E9
:1046A0008091E800877F8093E8008091EB00806232
:1046B0008093EB00AA960FB6F894DEBF0FBECDBF75
:1046C000DF91CF911F9108950895CF93809150026B
:1046D0008823A1F0C091E900CF709091EC00892F60
:1046E000817090FD80E8C82B1092E9008091E8006D
:1046F00083FD0E941222CF70C093E900CF910895EC
:1047000097FB072E16F4009407D077FD09D00E947E
:10471000A12307FC05D03EF4909581959F4F089505
:10472000709561957F4F0895EE0FFF1F0590F491EE
:10473000E02D099469279627692778278727782706
:104740000895AA1BBB1B51E107C0AA1FBB1FA617D8
:10475000B70710F0A61BB70B881F991F5A95A9F72A
:1047600080959095BC01CD010895FB01DC0104C04A
:104770008D910190801921F441505040C8F7881B59
:10478000990B0895F999FECF92BD81BDF89A9927AA
:1047900080B50895A8E1B0E042E050E00C94F62323
:1047A000262FF999FECF92BD81BDF89A019700B4EA
:1047B000021639F01FBA20BD0FB6F894FA9AF99A8A
:1047C0000FBE08950396272F0E94D1230E94D02365
:1047D000252F0E94D123242F0C94D1230196272F1B
:1047E0000E94D1230C94D023DC01CB01FC01F99968
:1047F000FECF06C0F2BDE1BDF89A319600B40D922D
:1048000041505040B8F70895F894FFCFA305A30591
:10481000D405D40567068306030603068E06F5064F
:10482000040704075C07030603066507DE07DE07C7
:10483000E707E707E907E707E707E707DE07DE0718
:10484000EE07E707E707EE079615A015C115CD158A
:10485000D815E315E615E615E615E615E615E9158E
:10486000ED15F51502160F161216151622163B2217
:1048700063224C2363224C239622B7224C230E231F
:024880001A23F9
:10488200C800D2012808641E140A321EF81B1D1C1F
:10489200FC1B8B1C871CFB1B01E200E900EA00B534
:1048A20000B600B700CD008301CC008A01920194CA
:1048B200012102230224022502260227022A02B330
:1048C20000B4006F007000818283E200E900EA0018
:1048D200B500B600B700CD008301CC008A01920179
:1048E20094012102230224022502260227022A021F
:1048F200B300B4006F0070008182833534C6363253
:104902004022B69103B902DB025E027702970200EF
:00000001FF
